{
  "_format": "hh-sol-artifact-1",
  "contractName": "Game1",
  "sourceName": "contracts/Game1.sol",
  "abi": [
    {
      "anonymous": false,
      "inputs": [
        {
          "indexed": false,
          "internalType": "address",
          "name": "winner",
          "type": "address"
        }
      ],
      "name": "Winner",
      "type": "event"
    },
    {
      "inputs": [],
      "name": "win",
      "outputs": [],
      "stateMutability": "nonpayable",
      "type": "function"
    }
  ],
  "bytecode": "0x608060405234801561001057600080fd5b5060f88061001f6000396000f3fe6080604052348015600f57600080fd5b506004361060285760003560e01c8063473ca96c14602d575b600080fd5b60336035565b005b7f745c90b656b4aafe296c8ca35aeacfe56cb96c90e1d320e5da643fff1051b6c0336040516062919060a9565b60405180910390a1565b600073ffffffffffffffffffffffffffffffffffffffff82169050919050565b6000609582606c565b9050919050565b60a381608c565b82525050565b600060208201905060bc6000830184609c565b9291505056fea2646970667358221220fd5c43b21b3319ef0d6cacacfe52a1ef862324da9555e82a3e4af86351828f3364736f6c63430008110033",
  "linkReferences": {},
  "deployedLinkReferences": {}
}